{"contracts/contracts_optimized/ArraySort.sol":{"OptimizedArraySort":{"abi":[{"inputs":[{"internalType":"uint256[]","name":"data","type":"uint256[]"}],"name":"sortArray","outputs":[{"internalType":"uint256[]","name":"_data","type":"uint256[]"}],"stateMutability":"pure","type":"function"}],"evm":{"bytecode":{"linkReferences":{},"object":"608060405234801561001057600080fd5b50610263806100206000396000f3fe608060405234801561001057600080fd5b506004361061002b5760003560e01c8063e379976e14610030575b600080fd5b61004361003e366004610145565b610059565b60405161005091906101ba565b60405180910390f35b60608282808060200260200160405190810160405280939291908181526020018383602002808284376000920182905250845194955092508291508190505b8381101561013b57600181015b84811015610132578582815181106100bf576100bf6101fe565b602002602001015193508581815181106100db576100db6101fe565b602002602001015192508284111561012a578383878381518110610101576101016101fe565b6020026020010188858151811061011a5761011a6101fe565b6020908102919091010191909152525b6001016100a5565b50600101610098565b5050505092915050565b6000806020838503121561015857600080fd5b823567ffffffffffffffff8082111561017057600080fd5b818501915085601f83011261018457600080fd5b81358181111561019357600080fd5b8660208260051b85010111156101a857600080fd5b60209290920196919550909350505050565b6020808252825182820181905260009190848201906040850190845b818110156101f2578351835292840192918401916001016101d6565b50909695505050505050565b7f4e487b7100000000000000000000000000000000000000000000000000000000600052603260045260246000fdfea2646970667358221220de02bf7dcae594b474aae5b770a41469b5ff5e6e6c6ef77205e97b1435bfffbe64736f6c634300080f0033","opcodes":"PUSH1 0x80 PUSH1 0x40 MSTORE CALLVALUE DUP1 ISZERO PUSH2 0x10 JUMPI PUSH1 0x0 DUP1 REVERT JUMPDEST POP PUSH2 0x263 DUP1 PUSH2 0x20 PUSH1 0x0 CODECOPY PUSH1 0x0 RETURN INVALID PUSH1 0x80 PUSH1 0x40 MSTORE CALLVALUE DUP1 ISZERO PUSH2 0x10 JUMPI PUSH1 0x0 DUP1 REVERT JUMPDEST POP PUSH1 0x4 CALLDATASIZE LT PUSH2 0x2B JUMPI PUSH1 0x0 CALLDATALOAD PUSH1 0xE0 SHR DUP1 PUSH4 0xE379976E EQ PUSH2 0x30 JUMPI JUMPDEST PUSH1 0x0 DUP1 REVERT JUMPDEST PUSH2 0x43 PUSH2 0x3E CALLDATASIZE PUSH1 0x4 PUSH2 0x145 JUMP JUMPDEST PUSH2 0x59 JUMP JUMPDEST PUSH1 0x40 MLOAD PUSH2 0x50 SWAP2 SWAP1 PUSH2 0x1BA JUMP JUMPDEST PUSH1 0x40 MLOAD DUP1 SWAP2 SUB SWAP1 RETURN JUMPDEST PUSH1 0x60 DUP3 DUP3 DUP1 DUP1 PUSH1 0x20 MUL PUSH1 0x20 ADD PUSH1 0x40 MLOAD SWAP1 DUP2 ADD PUSH1 0x40 MSTORE DUP1 SWAP4 SWAP3 SWAP2 SWAP1 DUP2 DUP2 MSTORE PUSH1 0x20 ADD DUP4 DUP4 PUSH1 0x20 MUL DUP1 DUP3 DUP5 CALLDATACOPY PUSH1 0x0 SWAP3 ADD DUP3 SWAP1 MSTORE POP DUP5 MLOAD SWAP5 SWAP6 POP SWAP3 POP DUP3 SWAP2 POP DUP2 SWAP1 POP JUMPDEST DUP4 DUP2 LT ISZERO PUSH2 0x13B JUMPI PUSH1 0x1 DUP2 ADD JUMPDEST DUP5 DUP2 LT ISZERO PUSH2 0x132 JUMPI DUP6 DUP3 DUP2 MLOAD DUP2 LT PUSH2 0xBF JUMPI PUSH2 0xBF PUSH2 0x1FE JUMP JUMPDEST PUSH1 0x20 MUL PUSH1 0x20 ADD ADD MLOAD SWAP4 POP DUP6 DUP2 DUP2 MLOAD DUP2 LT PUSH2 0xDB JUMPI PUSH2 0xDB PUSH2 0x1FE JUMP JUMPDEST PUSH1 0x20 MUL PUSH1 0x20 ADD ADD MLOAD SWAP3 POP DUP3 DUP5 GT ISZERO PUSH2 0x12A JUMPI DUP4 DUP4 DUP8 DUP4 DUP2 MLOAD DUP2 LT PUSH2 0x101 JUMPI PUSH2 0x101 PUSH2 0x1FE JUMP JUMPDEST PUSH1 0x20 MUL PUSH1 0x20 ADD ADD DUP9 DUP6 DUP2 MLOAD DUP2 LT PUSH2 0x11A JUMPI PUSH2 0x11A PUSH2 0x1FE JUMP JUMPDEST PUSH1 0x20 SWAP1 DUP2 MUL SWAP2 SWAP1 SWAP2 ADD ADD SWAP2 SWAP1 SWAP2 MSTORE MSTORE JUMPDEST PUSH1 0x1 ADD PUSH2 0xA5 JUMP JUMPDEST POP PUSH1 0x1 ADD PUSH2 0x98 JUMP JUMPDEST POP POP POP POP SWAP3 SWAP2 POP POP JUMP JUMPDEST PUSH1 0x0 DUP1 PUSH1 0x20 DUP4 DUP6 SUB SLT ISZERO PUSH2 0x158 JUMPI PUSH1 0x0 DUP1 REVERT JUMPDEST DUP3 CALLDATALOAD PUSH8 0xFFFFFFFFFFFFFFFF DUP1 DUP3 GT ISZERO PUSH2 0x170 JUMPI PUSH1 0x0 DUP1 REVERT JUMPDEST DUP2 DUP6 ADD SWAP2 POP DUP6 PUSH1 0x1F DUP4 ADD SLT PUSH2 0x184 JUMPI PUSH1 0x0 DUP1 REVERT JUMPDEST DUP2 CALLDATALOAD DUP2 DUP2 GT ISZERO PUSH2 0x193 JUMPI PUSH1 0x0 DUP1 REVERT JUMPDEST DUP7 PUSH1 0x20 DUP3 PUSH1 0x5 SHL DUP6 ADD ADD GT ISZERO PUSH2 0x1A8 JUMPI PUSH1 0x0 DUP1 REVERT JUMPDEST PUSH1 0x20 SWAP3 SWAP1 SWAP3 ADD SWAP7 SWAP2 SWAP6 POP SWAP1 SWAP4 POP POP POP POP JUMP JUMPDEST PUSH1 0x20 DUP1 DUP3 MSTORE DUP3 MLOAD DUP3 DUP3 ADD DUP2 SWAP1 MSTORE PUSH1 0x0 SWAP2 SWAP1 DUP5 DUP3 ADD SWAP1 PUSH1 0x40 DUP6 ADD SWAP1 DUP5 JUMPDEST DUP2 DUP2 LT ISZERO PUSH2 0x1F2 JUMPI DUP4 MLOAD DUP4 MSTORE SWAP3 DUP5 ADD SWAP3 SWAP2 DUP5 ADD SWAP2 PUSH1 0x1 ADD PUSH2 0x1D6 JUMP JUMPDEST POP SWAP1 SWAP7 SWAP6 POP POP POP POP POP POP JUMP JUMPDEST PUSH32 0x4E487B7100000000000000000000000000000000000000000000000000000000 PUSH1 0x0 MSTORE PUSH1 0x32 PUSH1 0x4 MSTORE PUSH1 0x24 PUSH1 0x0 REVERT INVALID LOG2 PUSH5 0x6970667358 0x22 SLT KECCAK256 0xDE MUL 0xBF PUSH30 0xCAE594B474AAE5B770A41469B5FF5E6E6C6EF77205E97B1435BFFFBE6473 PUSH16 0x6C634300080F00330000000000000000 "},"methodIdentifiers":{"sortArray(uint256[])":"e379976e"}}}}}