{"contracts/contracts_optimized/Distribute.sol":{"OptimizedDistribute":{"abi":[{"inputs":[{"internalType":"address[4]","name":"_contributors","type":"address[4]"}],"stateMutability":"payable","type":"constructor"},{"inputs":[],"name":"distribute","outputs":[],"stateMutability":"nonpayable","type":"function"}],"evm":{"bytecode":{"linkReferences":{},"object":"6101206040526040516103f53803806103f583398101604081905261002391610083565b80516001600160a01b039081166080526020820151811660a0526040820151811660c05260608201511660e05261005d4262093a80610115565b610100525061013b565b80516001600160a01b038116811461007e57600080fd5b919050565b60006080828403121561009557600080fd5b82601f8301126100a457600080fd5b604051608081016001600160401b03811182821017156100d457634e487b7160e01b600052604160045260246000fd5b6040528060808401858111156100e957600080fd5b845b8181101561010a576100fc81610067565b8352602092830192016100eb565b509195945050505050565b6000821982111561013657634e487b7160e01b600052601160045260246000fd5b500190565b60805160a05160c05160e0516101005161027861017d6000396000603c015260006101d001526000610192015260006101400152600060f101526102786000f3fe608060405234801561001057600080fd5b506004361061002b5760003560e01c8063e4fc6b6d14610030575b600080fd5b61003861003a565b005b7f000000000000000000000000000000000000000000000000000000000000000042116100c7576040517f08c379a000000000000000000000000000000000000000000000000000000000815260206004820152601560248201527f63616e6e6f742064697374726962757465207965740000000000000000000000604482015260640160405180910390fd5b60006100d4600447610207565b60405190915073ffffffffffffffffffffffffffffffffffffffff7f0000000000000000000000000000000000000000000000000000000000000000169082156108fc029083906000818181858888f1505060405173ffffffffffffffffffffffffffffffffffffffff7f000000000000000000000000000000000000000000000000000000000000000016935084156108fc0292508491506000818181858888f1505060405173ffffffffffffffffffffffffffffffffffffffff7f000000000000000000000000000000000000000000000000000000000000000016935084156108fc0292508491506000818181858888f19350505050507f000000000000000000000000000000000000000000000000000000000000000073ffffffffffffffffffffffffffffffffffffffff16ff5b60008261023d577f4e487b7100000000000000000000000000000000000000000000000000000000600052601260045260246000fd5b50049056fea264697066735822122027e5805b973b2e14f485efa0131c817d214576ee62cb0e0c70f9a27d8f93eb1d64736f6c634300080f0033","opcodes":"PUSH2 0x120 PUSH1 0x40 MSTORE PUSH1 0x40 MLOAD PUSH2 0x3F5 CODESIZE SUB DUP1 PUSH2 0x3F5 DUP4 CODECOPY DUP2 ADD PUSH1 0x40 DUP2 SWAP1 MSTORE PUSH2 0x23 SWAP2 PUSH2 0x83 JUMP JUMPDEST DUP1 MLOAD PUSH1 0x1 PUSH1 0x1 PUSH1 0xA0 SHL SUB SWAP1 DUP2 AND PUSH1 0x80 MSTORE PUSH1 0x20 DUP3 ADD MLOAD DUP2 AND PUSH1 0xA0 MSTORE PUSH1 0x40 DUP3 ADD MLOAD DUP2 AND PUSH1 0xC0 MSTORE PUSH1 0x60 DUP3 ADD MLOAD AND PUSH1 0xE0 MSTORE PUSH2 0x5D TIMESTAMP PUSH3 0x93A80 PUSH2 0x115 JUMP JUMPDEST PUSH2 0x100 MSTORE POP PUSH2 0x13B JUMP JUMPDEST DUP1 MLOAD PUSH1 0x1 PUSH1 0x1 PUSH1 0xA0 SHL SUB DUP2 AND DUP2 EQ PUSH2 0x7E JUMPI PUSH1 0x0 DUP1 REVERT JUMPDEST SWAP2 SWAP1 POP JUMP JUMPDEST PUSH1 0x0 PUSH1 0x80 DUP3 DUP5 SUB SLT ISZERO PUSH2 0x95 JUMPI PUSH1 0x0 DUP1 REVERT JUMPDEST DUP3 PUSH1 0x1F DUP4 ADD SLT PUSH2 0xA4 JUMPI PUSH1 0x0 DUP1 REVERT JUMPDEST PUSH1 0x40 MLOAD PUSH1 0x80 DUP2 ADD PUSH1 0x1 PUSH1 0x1 PUSH1 0x40 SHL SUB DUP2 GT DUP3 DUP3 LT OR ISZERO PUSH2 0xD4 JUMPI PUSH4 0x4E487B71 PUSH1 0xE0 SHL PUSH1 0x0 MSTORE PUSH1 0x41 PUSH1 0x4 MSTORE PUSH1 0x24 PUSH1 0x0 REVERT JUMPDEST PUSH1 0x40 MSTORE DUP1 PUSH1 0x80 DUP5 ADD DUP6 DUP2 GT ISZERO PUSH2 0xE9 JUMPI PUSH1 0x0 DUP1 REVERT JUMPDEST DUP5 JUMPDEST DUP2 DUP2 LT ISZERO PUSH2 0x10A JUMPI PUSH2 0xFC DUP2 PUSH2 0x67 JUMP JUMPDEST DUP4 MSTORE PUSH1 0x20 SWAP3 DUP4 ADD SWAP3 ADD PUSH2 0xEB JUMP JUMPDEST POP SWAP2 SWAP6 SWAP5 POP POP POP POP POP JUMP JUMPDEST PUSH1 0x0 DUP3 NOT DUP3 GT ISZERO PUSH2 0x136 JUMPI PUSH4 0x4E487B71 PUSH1 0xE0 SHL PUSH1 0x0 MSTORE PUSH1 0x11 PUSH1 0x4 MSTORE PUSH1 0x24 PUSH1 0x0 REVERT JUMPDEST POP ADD SWAP1 JUMP JUMPDEST PUSH1 0x80 MLOAD PUSH1 0xA0 MLOAD PUSH1 0xC0 MLOAD PUSH1 0xE0 MLOAD PUSH2 0x100 MLOAD PUSH2 0x278 PUSH2 0x17D PUSH1 0x0 CODECOPY PUSH1 0x0 PUSH1 0x3C ADD MSTORE PUSH1 0x0 PUSH2 0x1D0 ADD MSTORE PUSH1 0x0 PUSH2 0x192 ADD MSTORE PUSH1 0x0 PUSH2 0x140 ADD MSTORE PUSH1 0x0 PUSH1 0xF1 ADD MSTORE PUSH2 0x278 PUSH1 0x0 RETURN INVALID PUSH1 0x80 PUSH1 0x40 MSTORE CALLVALUE DUP1 ISZERO PUSH2 0x10 JUMPI PUSH1 0x0 DUP1 REVERT JUMPDEST POP PUSH1 0x4 CALLDATASIZE LT PUSH2 0x2B JUMPI PUSH1 0x0 CALLDATALOAD PUSH1 0xE0 SHR DUP1 PUSH4 0xE4FC6B6D EQ PUSH2 0x30 JUMPI JUMPDEST PUSH1 0x0 DUP1 REVERT JUMPDEST PUSH2 0x38 PUSH2 0x3A JUMP JUMPDEST STOP JUMPDEST PUSH32 0x0 TIMESTAMP GT PUSH2 0xC7 JUMPI PUSH1 0x40 MLOAD PUSH32 0x8C379A000000000000000000000000000000000000000000000000000000000 DUP2 MSTORE PUSH1 0x20 PUSH1 0x4 DUP3 ADD MSTORE PUSH1 0x15 PUSH1 0x24 DUP3 ADD MSTORE PUSH32 0x63616E6E6F742064697374726962757465207965740000000000000000000000 PUSH1 0x44 DUP3 ADD MSTORE PUSH1 0x64 ADD PUSH1 0x40 MLOAD DUP1 SWAP2 SUB SWAP1 REVERT JUMPDEST PUSH1 0x0 PUSH2 0xD4 PUSH1 0x4 SELFBALANCE PUSH2 0x207 JUMP JUMPDEST PUSH1 0x40 MLOAD SWAP1 SWAP2 POP PUSH20 0xFFFFFFFFFFFFFFFFFFFFFFFFFFFFFFFFFFFFFFFF PUSH32 0x0 AND SWAP1 DUP3 ISZERO PUSH2 0x8FC MUL SWAP1 DUP4 SWAP1 PUSH1 0x0 DUP2 DUP2 DUP2 DUP6 DUP9 DUP9 CALL POP POP PUSH1 0x40 MLOAD PUSH20 0xFFFFFFFFFFFFFFFFFFFFFFFFFFFFFFFFFFFFFFFF PUSH32 0x0 AND SWAP4 POP DUP5 ISZERO PUSH2 0x8FC MUL SWAP3 POP DUP5 SWAP2 POP PUSH1 0x0 DUP2 DUP2 DUP2 DUP6 DUP9 DUP9 CALL POP POP PUSH1 0x40 MLOAD PUSH20 0xFFFFFFFFFFFFFFFFFFFFFFFFFFFFFFFFFFFFFFFF PUSH32 0x0 AND SWAP4 POP DUP5 ISZERO PUSH2 0x8FC MUL SWAP3 POP DUP5 SWAP2 POP PUSH1 0x0 DUP2 DUP2 DUP2 DUP6 DUP9 DUP9 CALL SWAP4 POP POP POP POP POP PUSH32 0x0 PUSH20 0xFFFFFFFFFFFFFFFFFFFFFFFFFFFFFFFFFFFFFFFF AND SELFDESTRUCT JUMPDEST PUSH1 0x0 DUP3 PUSH2 0x23D JUMPI PUSH32 0x4E487B7100000000000000000000000000000000000000000000000000000000 PUSH1 0x0 MSTORE PUSH1 0x12 PUSH1 0x4 MSTORE PUSH1 0x24 PUSH1 0x0 REVERT JUMPDEST POP DIV SWAP1 JUMP INVALID LOG2 PUSH5 0x6970667358 0x22 SLT KECCAK256 0x27 0xE5 DUP1 JUMPDEST SWAP8 EXTCODESIZE 0x2E EQ DELEGATECALL DUP6 0xEF LOG0 SGT SHR DUP2 PUSH30 0x214576EE62CB0E0C70F9A27D8F93EB1D64736F6C634300080F0033000000 "},"methodIdentifiers":{"distribute()":"e4fc6b6d"}}}}}