{"contracts/contracts_optimized/Distribute.sol":{"OptimizedDistribute":{"abi":[{"inputs":[{"internalType":"address[4]","name":"_contributors","type":"address[4]"}],"stateMutability":"payable","type":"constructor"},{"inputs":[],"name":"distribute","outputs":[],"stateMutability":"nonpayable","type":"function"}],"evm":{"bytecode":{"linkReferences":{},"object":"61012060405260405161032538038061032583398101604081905261002391610083565b80516001600160a01b039081166080526020820151811660a0526040820151811660c05260608201511660e05261005d4262093a80610115565b610100525061013b565b80516001600160a01b038116811461007e57600080fd5b919050565b60006080828403121561009557600080fd5b82601f8301126100a457600080fd5b604051608081016001600160401b03811182821017156100d457634e487b7160e01b600052604160045260246000fd5b6040528060808401858111156100e957600080fd5b845b8181101561010a576100fc81610067565b8352602092830192016100eb565b509195945050505050565b6000821982111561013657634e487b7160e01b600052601160045260246000fd5b500190565b60805160a05160c05160e051610100516101a961017c6000396000603c0152600061012c0152600061010b0152600060ea0152600060c901526101a96000f3fe608060405234801561001057600080fd5b506004361061002b5760003560e01c8063e4fc6b6d14610030575b600080fd5b61003861003a565b005b7f000000000000000000000000000000000000000000000000000000000000000042116100c7576040517f08c379a000000000000000000000000000000000000000000000000000000000815260206004820152601560248201527f63616e6e6f742064697374726962757465207965740000000000000000000000604482015260640160405180910390fd5b7f00000000000000000000000000000000000000000000000000000000000000007f00000000000000000000000000000000000000000000000000000000000000007f00000000000000000000000000000000000000000000000000000000000000007f00000000000000000000000000000000000000000000000000000000000000004760021c600080808084895af15060008060008084885af15060008060008084875af1505080fffea26469706673582212200d09e4ecb1a7858594d43fc982f812d3bcc77df35a56c28aebfbd04de226f89264736f6c634300080f0033","opcodes":"PUSH2 0x120 PUSH1 0x40 MSTORE PUSH1 0x40 MLOAD PUSH2 0x325 CODESIZE SUB DUP1 PUSH2 0x325 DUP4 CODECOPY DUP2 ADD PUSH1 0x40 DUP2 SWAP1 MSTORE PUSH2 0x23 SWAP2 PUSH2 0x83 JUMP JUMPDEST DUP1 MLOAD PUSH1 0x1 PUSH1 0x1 PUSH1 0xA0 SHL SUB SWAP1 DUP2 AND PUSH1 0x80 MSTORE PUSH1 0x20 DUP3 ADD MLOAD DUP2 AND PUSH1 0xA0 MSTORE PUSH1 0x40 DUP3 ADD MLOAD DUP2 AND PUSH1 0xC0 MSTORE PUSH1 0x60 DUP3 ADD MLOAD AND PUSH1 0xE0 MSTORE PUSH2 0x5D TIMESTAMP PUSH3 0x93A80 PUSH2 0x115 JUMP JUMPDEST PUSH2 0x100 MSTORE POP PUSH2 0x13B JUMP JUMPDEST DUP1 MLOAD PUSH1 0x1 PUSH1 0x1 PUSH1 0xA0 SHL SUB DUP2 AND DUP2 EQ PUSH2 0x7E JUMPI PUSH1 0x0 DUP1 REVERT JUMPDEST SWAP2 SWAP1 POP JUMP JUMPDEST PUSH1 0x0 PUSH1 0x80 DUP3 DUP5 SUB SLT ISZERO PUSH2 0x95 JUMPI PUSH1 0x0 DUP1 REVERT JUMPDEST DUP3 PUSH1 0x1F DUP4 ADD SLT PUSH2 0xA4 JUMPI PUSH1 0x0 DUP1 REVERT JUMPDEST PUSH1 0x40 MLOAD PUSH1 0x80 DUP2 ADD PUSH1 0x1 PUSH1 0x1 PUSH1 0x40 SHL SUB DUP2 GT DUP3 DUP3 LT OR ISZERO PUSH2 0xD4 JUMPI PUSH4 0x4E487B71 PUSH1 0xE0 SHL PUSH1 0x0 MSTORE PUSH1 0x41 PUSH1 0x4 MSTORE PUSH1 0x24 PUSH1 0x0 REVERT JUMPDEST PUSH1 0x40 MSTORE DUP1 PUSH1 0x80 DUP5 ADD DUP6 DUP2 GT ISZERO PUSH2 0xE9 JUMPI PUSH1 0x0 DUP1 REVERT JUMPDEST DUP5 JUMPDEST DUP2 DUP2 LT ISZERO PUSH2 0x10A JUMPI PUSH2 0xFC DUP2 PUSH2 0x67 JUMP JUMPDEST DUP4 MSTORE PUSH1 0x20 SWAP3 DUP4 ADD SWAP3 ADD PUSH2 0xEB JUMP JUMPDEST POP SWAP2 SWAP6 SWAP5 POP POP POP POP POP JUMP JUMPDEST PUSH1 0x0 DUP3 NOT DUP3 GT ISZERO PUSH2 0x136 JUMPI PUSH4 0x4E487B71 PUSH1 0xE0 SHL PUSH1 0x0 MSTORE PUSH1 0x11 PUSH1 0x4 MSTORE PUSH1 0x24 PUSH1 0x0 REVERT JUMPDEST POP ADD SWAP1 JUMP JUMPDEST PUSH1 0x80 MLOAD PUSH1 0xA0 MLOAD PUSH1 0xC0 MLOAD PUSH1 0xE0 MLOAD PUSH2 0x100 MLOAD PUSH2 0x1A9 PUSH2 0x17C PUSH1 0x0 CODECOPY PUSH1 0x0 PUSH1 0x3C ADD MSTORE PUSH1 0x0 PUSH2 0x12C ADD MSTORE PUSH1 0x0 PUSH2 0x10B ADD MSTORE PUSH1 0x0 PUSH1 0xEA ADD MSTORE PUSH1 0x0 PUSH1 0xC9 ADD MSTORE PUSH2 0x1A9 PUSH1 0x0 RETURN INVALID PUSH1 0x80 PUSH1 0x40 MSTORE CALLVALUE DUP1 ISZERO PUSH2 0x10 JUMPI PUSH1 0x0 DUP1 REVERT JUMPDEST POP PUSH1 0x4 CALLDATASIZE LT PUSH2 0x2B JUMPI PUSH1 0x0 CALLDATALOAD PUSH1 0xE0 SHR DUP1 PUSH4 0xE4FC6B6D EQ PUSH2 0x30 JUMPI JUMPDEST PUSH1 0x0 DUP1 REVERT JUMPDEST PUSH2 0x38 PUSH2 0x3A JUMP JUMPDEST STOP JUMPDEST PUSH32 0x0 TIMESTAMP GT PUSH2 0xC7 JUMPI PUSH1 0x40 MLOAD PUSH32 0x8C379A000000000000000000000000000000000000000000000000000000000 DUP2 MSTORE PUSH1 0x20 PUSH1 0x4 DUP3 ADD MSTORE PUSH1 0x15 PUSH1 0x24 DUP3 ADD MSTORE PUSH32 0x63616E6E6F742064697374726962757465207965740000000000000000000000 PUSH1 0x44 DUP3 ADD MSTORE PUSH1 0x64 ADD PUSH1 0x40 MLOAD DUP1 SWAP2 SUB SWAP1 REVERT JUMPDEST PUSH32 0x0 PUSH32 0x0 PUSH32 0x0 PUSH32 0x0 SELFBALANCE PUSH1 0x2 SHR PUSH1 0x0 DUP1 DUP1 DUP1 DUP5 DUP10 GAS CALL POP PUSH1 0x0 DUP1 PUSH1 0x0 DUP1 DUP5 DUP9 GAS CALL POP PUSH1 0x0 DUP1 PUSH1 0x0 DUP1 DUP5 DUP8 GAS CALL POP POP DUP1 SELFDESTRUCT INVALID LOG2 PUSH5 0x6970667358 0x22 SLT KECCAK256 0xD MULMOD 0xE4 0xEC 0xB1 0xA7 DUP6 DUP6 SWAP5 0xD4 EXTCODEHASH 0xC9 DUP3 0xF8 SLT 0xD3 0xBC 0xC7 PUSH30 0xF35A56C28AEBFBD04DE226F89264736F6C634300080F0033000000000000 "},"methodIdentifiers":{"distribute()":"e4fc6b6d"}}}}}