{
  "_format": "hh-sol-artifact-1",
  "contractName": "OptimizedArraySort",
  "sourceName": "contracts/contracts_optimized/ArraySort.sol",
  "abi": [
    {
      "inputs": [
        {
          "internalType": "uint256[]",
          "name": "data",
          "type": "uint256[]"
        }
      ],
      "name": "sortArray",
      "outputs": [
        {
          "internalType": "uint256[]",
          "name": "_data",
          "type": "uint256[]"
        }
      ],
      "stateMutability": "pure",
      "type": "function"
    }
  ],
  "bytecode": "0x608060405234801561001057600080fd5b50610263806100206000396000f3fe608060405234801561001057600080fd5b506004361061002b5760003560e01c8063e379976e14610030575b600080fd5b61004361003e366004610145565b610059565b60405161005091906101ba565b60405180910390f35b60608282808060200260200160405190810160405280939291908181526020018383602002808284376000920182905250845194955092508291508190505b8381101561013b57600181015b84811015610132578582815181106100bf576100bf6101fe565b602002602001015193508581815181106100db576100db6101fe565b602002602001015192508284111561012a578383878381518110610101576101016101fe565b6020026020010188858151811061011a5761011a6101fe565b6020908102919091010191909152525b6001016100a5565b50600101610098565b5050505092915050565b6000806020838503121561015857600080fd5b823567ffffffffffffffff8082111561017057600080fd5b818501915085601f83011261018457600080fd5b81358181111561019357600080fd5b8660208260051b85010111156101a857600080fd5b60209290920196919550909350505050565b6020808252825182820181905260009190848201906040850190845b818110156101f2578351835292840192918401916001016101d6565b50909695505050505050565b7f4e487b7100000000000000000000000000000000000000000000000000000000600052603260045260246000fdfea2646970667358221220de02bf7dcae594b474aae5b770a41469b5ff5e6e6c6ef77205e97b1435bfffbe64736f6c634300080f0033",
  "linkReferences": {},
  "deployedLinkReferences": {}
}