{
  "_format": "hh-sol-artifact-1",
  "contractName": "OptimizedDistribute",
  "sourceName": "contracts/contracts_optimized/Distribute.sol",
  "abi": [
    {
      "inputs": [
        {
          "internalType": "address[4]",
          "name": "_contributors",
          "type": "address[4]"
        }
      ],
      "stateMutability": "payable",
      "type": "constructor"
    },
    {
      "inputs": [],
      "name": "distribute",
      "outputs": [],
      "stateMutability": "nonpayable",
      "type": "function"
    }
  ],
  "bytecode": "0x61012060405260405161032538038061032583398101604081905261002391610083565b80516001600160a01b039081166080526020820151811660a0526040820151811660c05260608201511660e05261005d4262093a80610115565b610100525061013b565b80516001600160a01b038116811461007e57600080fd5b919050565b60006080828403121561009557600080fd5b82601f8301126100a457600080fd5b604051608081016001600160401b03811182821017156100d457634e487b7160e01b600052604160045260246000fd5b6040528060808401858111156100e957600080fd5b845b8181101561010a576100fc81610067565b8352602092830192016100eb565b509195945050505050565b6000821982111561013657634e487b7160e01b600052601160045260246000fd5b500190565b60805160a05160c05160e051610100516101a961017c6000396000603c0152600061012c0152600061010b0152600060ea0152600060c901526101a96000f3fe608060405234801561001057600080fd5b506004361061002b5760003560e01c8063e4fc6b6d14610030575b600080fd5b61003861003a565b005b7f000000000000000000000000000000000000000000000000000000000000000042116100c7576040517f08c379a000000000000000000000000000000000000000000000000000000000815260206004820152601560248201527f63616e6e6f742064697374726962757465207965740000000000000000000000604482015260640160405180910390fd5b7f00000000000000000000000000000000000000000000000000000000000000007f00000000000000000000000000000000000000000000000000000000000000007f00000000000000000000000000000000000000000000000000000000000000007f00000000000000000000000000000000000000000000000000000000000000004760021c600080808084895af15060008060008084885af15060008060008084875af1505080fffea26469706673582212200d09e4ecb1a7858594d43fc982f812d3bcc77df35a56c28aebfbd04de226f89264736f6c634300080f0033",
  "linkReferences": {},
  "deployedLinkReferences": {}
}