{
  "_format": "hh-sol-artifact-1",
  "contractName": "OptimizedArraySum",
  "sourceName": "contracts/contracts_optimized/ArraySum.sol",
  "abi": [
    {
      "inputs": [],
      "name": "getArraySum",
      "outputs": [
        {
          "internalType": "uint256",
          "name": "sum",
          "type": "uint256"
        }
      ],
      "stateMutability": "view",
      "type": "function"
    },
    {
      "inputs": [
        {
          "internalType": "uint256[]",
          "name": "_array",
          "type": "uint256[]"
        }
      ],
      "name": "setArray",
      "outputs": [],
      "stateMutability": "nonpayable",
      "type": "function"
    }
  ],
  "bytecode": "0x608060405234801561001057600080fd5b5061038f806100206000396000f3fe608060405234801561001057600080fd5b50600436106100365760003560e01c806308d716421461003b57806353ed649e14610050575b600080fd5b61004e6100493660046101cf565b61006a565b005b6100586100f1565b60405190815260200160405180910390f35b600a815111156100da576040517f08c379a000000000000000000000000000000000000000000000000000000000815260206004820152600860248201527f746f6f206c6f6e67000000000000000000000000000000000000000000000000604482015260640160405180910390fd5b80516100ed906000906020840190610149565b5050565b6000805480156101455760005b818110156101435760008181548110610119576101196102ab565b90600052602060002001548361012f9190610309565b92508061013b81610321565b9150506100fe565b505b5090565b828054828255906000526020600020908101928215610184579160200282015b82811115610184578251825591602001919060010190610169565b506101459291505b80821115610145576000815560010161018c565b7f4e487b7100000000000000000000000000000000000000000000000000000000600052604160045260246000fd5b600060208083850312156101e257600080fd5b823567ffffffffffffffff808211156101fa57600080fd5b818501915085601f83011261020e57600080fd5b813581811115610220576102206101a0565b8060051b6040517fffffffffffffffffffffffffffffffffffffffffffffffffffffffffffffffe0603f83011681018181108582111715610263576102636101a0565b60405291825284820192508381018501918883111561028157600080fd5b938501935b8285101561029f57843584529385019392850192610286565b98975050505050505050565b7f4e487b7100000000000000000000000000000000000000000000000000000000600052603260045260246000fd5b7f4e487b7100000000000000000000000000000000000000000000000000000000600052601160045260246000fd5b6000821982111561031c5761031c6102da565b500190565b60007fffffffffffffffffffffffffffffffffffffffffffffffffffffffffffffffff8203610352576103526102da565b506001019056fea26469706673582212207edc5cd248bca6142565dd89e4de8ec7a58071652a6e404133f44d0f066b89db64736f6c634300080f0033",
  "linkReferences": {},
  "deployedLinkReferences": {}
}